{
    "contractName": "BondI",
    "abi": [
        {
            "inputs": [],
            "stateMutability": "nonpayable",
            "type": "constructor"
        },
        {
            "anonymous": false,
            "inputs": [
                {
                    "indexed": true,
                    "internalType": "address",
                    "name": "issuer",
                    "type": "address"
                },
                {
                    "indexed": true,
                    "internalType": "address",
                    "name": "buyer",
                    "type": "address"
                },
                {
                    "indexed": true,
                    "internalType": "uint256",
                    "name": "amount",
                    "type": "uint256"
                }
            ],
            "name": "BondBought",
            "type": "event"
        },
        {
            "anonymous": false,
            "inputs": [
                {
                    "indexed": true,
                    "internalType": "address",
                    "name": "issuer",
                    "type": "address"
                },
                {
                    "indexed": true,
                    "internalType": "string",
                    "name": "title",
                    "type": "string"
                }
            ],
            "name": "BondForceResolved",
            "type": "event"
        },
        {
            "anonymous": false,
            "inputs": [
                {
                    "indexed": true,
                    "internalType": "address",
                    "name": "issuer",
                    "type": "address"
                },
                {
                    "indexed": true,
                    "internalType": "string",
                    "name": "title",
                    "type": "string"
                }
            ],
            "name": "BondIssued",
            "type": "event"
        },
        {
            "anonymous": false,
            "inputs": [
                {
                    "indexed": true,
                    "internalType": "address",
                    "name": "issuer",
                    "type": "address"
                },
                {
                    "indexed": true,
                    "internalType": "string",
                    "name": "title",
                    "type": "string"
                }
            ],
            "name": "BondPeacefulResolved",
            "type": "event"
        },
        {
            "anonymous": false,
            "inputs": [
                {
                    "indexed": true,
                    "internalType": "address",
                    "name": "issuer",
                    "type": "address"
                }
            ],
            "name": "CapitalCollected",
            "type": "event"
        },
        {
            "inputs": [
                {
                    "internalType": "address",
                    "name": "",
                    "type": "address"
                },
                {
                    "internalType": "uint256",
                    "name": "",
                    "type": "uint256"
                }
            ],
            "name": "bondBags",
            "outputs": [
                {
                    "internalType": "uint256",
                    "name": "",
                    "type": "uint256"
                }
            ],
            "stateMutability": "view",
            "type": "function"
        },
        {
            "inputs": [
                {
                    "internalType": "address",
                    "name": "",
                    "type": "address"
                },
                {
                    "internalType": "string",
                    "name": "",
                    "type": "string"
                }
            ],
            "name": "bondDescription",
            "outputs": [
                {
                    "internalType": "string",
                    "name": "",
                    "type": "string"
                }
            ],
            "stateMutability": "view",
            "type": "function"
        },
        {
            "inputs": [
                {
                    "internalType": "address",
                    "name": "",
                    "type": "address"
                },
                {
                    "internalType": "string",
                    "name": "",
                    "type": "string"
                }
            ],
            "name": "bondInfo",
            "outputs": [
                {
                    "internalType": "uint256",
                    "name": "",
                    "type": "uint256"
                }
            ],
            "stateMutability": "view",
            "type": "function"
        },
        {
            "inputs": [
                {
                    "internalType": "address",
                    "name": "",
                    "type": "address"
                }
            ],
            "name": "bondToken",
            "outputs": [
                {
                    "internalType": "address",
                    "name": "",
                    "type": "address"
                }
            ],
            "stateMutability": "view",
            "type": "function"
        },
        {
            "inputs": [
                {
                    "internalType": "address",
                    "name": "issuer",
                    "type": "address"
                },
                {
                    "internalType": "uint256",
                    "name": "amount",
                    "type": "uint256"
                }
            ],
            "name": "buyBond",
            "outputs": [
                {
                    "internalType": "bool",
                    "name": "",
                    "type": "bool"
                }
            ],
            "stateMutability": "nonpayable",
            "type": "function"
        },
        {
            "inputs": [
                {
                    "internalType": "address",
                    "name": "",
                    "type": "address"
                },
                {
                    "internalType": "address",
                    "name": "",
                    "type": "address"
                }
            ],
            "name": "buyers",
            "outputs": [
                {
                    "internalType": "uint256",
                    "name": "",
                    "type": "uint256"
                }
            ],
            "stateMutability": "view",
            "type": "function"
        },
        {
            "inputs": [],
            "name": "collectCapital",
            "outputs": [
                {
                    "internalType": "bool",
                    "name": "",
                    "type": "bool"
                }
            ],
            "stateMutability": "nonpayable",
            "type": "function"
        },
        {
            "inputs": [
                {
                    "internalType": "address",
                    "name": "",
                    "type": "address"
                }
            ],
            "name": "ethLocked",
            "outputs": [
                {
                    "internalType": "uint256",
                    "name": "",
                    "type": "uint256"
                }
            ],
            "stateMutability": "view",
            "type": "function"
        },
        {
            "inputs": [
                {
                    "internalType": "string",
                    "name": "title",
                    "type": "string"
                },
                {
                    "internalType": "string",
                    "name": "issuer",
                    "type": "string"
                },
                {
                    "internalType": "string",
                    "name": "description",
                    "type": "string"
                },
                {
                    "internalType": "string",
                    "name": "links",
                    "type": "string"
                },
                {
                    "internalType": "address",
                    "name": "tokenAddress",
                    "type": "address"
                },
                {
                    "internalType": "uint256",
                    "name": "sellRatio",
                    "type": "uint256"
                },
                {
                    "internalType": "uint256",
                    "name": "issuedAmount",
                    "type": "uint256"
                },
                {
                    "internalType": "uint256",
                    "name": "buybackRatio",
                    "type": "uint256"
                },
                {
                    "internalType": "uint256",
                    "name": "offeringBlocks",
                    "type": "uint256"
                },
                {
                    "internalType": "uint256",
                    "name": "expireBlocks",
                    "type": "uint256"
                }
            ],
            "name": "issueBond",
            "outputs": [
                {
                    "internalType": "bool",
                    "name": "",
                    "type": "bool"
                }
            ],
            "stateMutability": "nonpayable",
            "type": "function"
        },
        {
            "inputs": [],
            "name": "lockEth",
            "outputs": [],
            "stateMutability": "payable",
            "type": "function"
        },
        {
            "inputs": [],
            "name": "name",
            "outputs": [
                {
                    "internalType": "string",
                    "name": "",
                    "type": "string"
                }
            ],
            "stateMutability": "view",
            "type": "function"
        },
        {
            "inputs": [],
            "name": "peacefulResolve",
            "outputs": [
                {
                    "internalType": "bool",
                    "name": "",
                    "type": "bool"
                }
            ],
            "stateMutability": "nonpayable",
            "type": "function"
        },
        {
            "inputs": [
                {
                    "internalType": "address",
                    "name": "issuer",
                    "type": "address"
                }
            ],
            "name": "sellBond",
            "outputs": [
                {
                    "internalType": "bool",
                    "name": "",
                    "type": "bool"
                }
            ],
            "stateMutability": "nonpayable",
            "type": "function"
        },
        {
            "inputs": [
                {
                    "internalType": "address",
                    "name": "issuer",
                    "type": "address"
                }
            ],
            "name": "totalBondBag",
            "outputs": [
                {
                    "internalType": "uint256",
                    "name": "",
                    "type": "uint256"
                }
            ],
            "stateMutability": "view",
            "type": "function"
        },
        {
            "inputs": [
                {
                    "internalType": "address",
                    "name": "issuer",
                    "type": "address"
                }
            ],
            "name": "totalCapital",
            "outputs": [
                {
                    "internalType": "uint256",
                    "name": "",
                    "type": "uint256"
                }
            ],
            "stateMutability": "view",
            "type": "function"
        },
        {
            "inputs": [
                {
                    "internalType": "address",
                    "name": "issuer",
                    "type": "address"
                }
            ],
            "name": "totalDue",
            "outputs": [
                {
                    "internalType": "uint256",
                    "name": "",
                    "type": "uint256"
                }
            ],
            "stateMutability": "view",
            "type": "function"
        },
        {
            "inputs": [],
            "name": "unlockEth",
            "outputs": [],
            "stateMutability": "payable",
            "type": "function"
        }
    ],
    "bytecode": "60c06040526005608081905264426f6e644960d81b60a09081526200002891600091906200003d565b503480156200003657600080fd5b5062000120565b8280546200004b90620000e3565b90600052602060002090601f0160209004810192826200006f5760008555620000ba565b82601f106200008a57805160ff1916838001178555620000ba565b82800160010185558215620000ba579182015b82811115620000ba5782518255916020019190600101906200009d565b50620000c8929150620000cc565b5090565b5b80821115620000c85760008155600101620000cd565b600181811c90821680620000f857607f821691505b602082108114156200011a57634e487b7160e01b600052602260045260246000fd5b50919050565b61206080620001306000396000f3fe6080604052600436106100fe5760003560e01c806334e613ac11610095578063adc44b3911610064578063adc44b39146102f0578063ce47022014610310578063d6f20f7114610325578063d7611cc11461036e578063f02fef841461037857600080fd5b806334e613ac146102425780634d78c2c014610262578063549dc89e146102825780638a19e5ef146102a257600080fd5b8063269e6d04116100d1578063269e6d04146101c057806329d29799146101e05780632af49bcb146101f55780632d40be0e1461022257600080fd5b8063036333141461010357806306fdde03146101385780630ad2f0c31461015a5780632072086a14610188575b600080fd5b34801561010f57600080fd5b5061012361011e366004611acb565b610380565b60405190151581526020015b60405180910390f35b34801561014457600080fd5b5061014d610775565b60405161012f9190611b25565b34801561016657600080fd5b5061017a610175366004611b58565b610803565b60405190815260200161012f565b34801561019457600080fd5b5061017a6101a3366004611b7a565b600560209081526000928352604080842090915290825290205481565b3480156101cc57600080fd5b5061017a6101db366004611acb565b61085c565b3480156101ec57600080fd5b5061012361088d565b34801561020157600080fd5b5061017a610210366004611b58565b60046020526000908152604090205481565b34801561022e57600080fd5b5061012361023d366004611c50565b610ad0565b34801561024e57600080fd5b5061017a61025d366004611b58565b610e57565b34801561026e57600080fd5b5061017a61027d366004611b58565b610e89565b34801561028e57600080fd5b5061014d61029d366004611d3c565b610f09565b3480156102ae57600080fd5b506102d86102bd366004611b58565b6003602052600090815260409020546001600160a01b031681565b6040516001600160a01b03909116815260200161012f565b3480156102fc57600080fd5b5061012361030b366004611b58565b610f3e565b34801561031c57600080fd5b50610123611344565b34801561033157600080fd5b5061017a610340366004611d3c565b6002602090815260009283526040909220815180830184018051928152908401929093019190912091525481565b610376611730565b005b61037661175d565b6001600160a01b03821660009081526002602052604080822090516103a490611d8a565b9081526020016040518091039020546064146103db5760405162461bcd60e51b81526004016103d290611d9c565b60405180910390fd5b6001600160a01b038316600081815260026020818152604080842081516d6f66666572696e67426c6f636b7360901b8152600e8101829052915191829003602e01822054959094529190524392919061043390611ddd565b90815260200160405180910390205461044c9190611e0c565b116104915760405162461bcd60e51b8152602060048201526015602482015274109bdb9909dcc81bd999995c9a5b99c8195b991959605a1b60448201526064016103d2565b6001600160a01b0383166000908152600260205260409081902090516c18dd5c9c995b9d105b5bdd5b9d609a1b8152839190600d01908152602001604051809103902054101561051b5760405162461bcd60e51b81526020600482015260156024820152744e6f7420656e6f75676820626f6e6420756e69747360581b60448201526064016103d2565b6001600160a01b03838116600090815260036020526040808220549051636eb1769f60e11b8152336004820152306024820152921691829063dd62ed3e90604401602060405180830381865afa158015610579573d6000803e3d6000fd5b505050506040513d601f19601f8201168201806040525081019061059d9190611e24565b6001600160a01b03861660009081526002602052604080822090516873656c6c526174696f60b81b815292935090918691906009019081526020016040518091039020546105eb9190611e3d565b90508082101561060d5760405162461bcd60e51b81526004016103d290611e5c565b6040516323b872dd60e01b8152336004820152306024820152604481018290526001600160a01b038416906323b872dd906064016020604051808303816000875af1158015610660573d6000803e3d6000fd5b505050506040513d601f19601f820116820180604052508101906106849190611eab565b506001600160a01b0386166000908152600560209081526040808320338452909152812080548792906106b8908490611e0c565b90915550506001600160a01b03861660008181526006602090815260408083208054600181018255908452828420018990559282526002905281902090516c18dd5c9c995b9d105b5bdd5b9d609a1b8152869190600d019081526020016040518091039020600082825461072c9190611ecd565b9091555050604051859033906001600160a01b038916907f1b0d67621060a4efd6062eb683e5776e81508722521113120015ef0e3901a60990600090a450600195945050505050565b6000805461078290611ee4565b80601f01602080910402602001604051908101604052809291908181526020018280546107ae90611ee4565b80156107fb5780601f106107d0576101008083540402835291602001916107fb565b820191906000526020600020905b8154815290600101906020018083116107de57829003601f168201915b505050505081565b6001600160a01b03811660009081526002602052604080822090516b6275796261636b526174696f60a01b8152600c015b90815260200160405180910390205461084c83610e89565b6108569190611e3d565b92915050565b6006602052816000526040600020818154811061087857600080fd5b90600052602060002001600091509150505481565b3360009081526002602052604080822090516108a890611d8a565b9081526020016040518091039020546064146108d65760405162461bcd60e51b81526004016103d290611d9c565b336000908152600260205260409081902090516818dbdb1b1958dd195960ba1b815260090190815260200160405180910390205460001461096b5760405162461bcd60e51b815260206004820152602960248201527f426f6e642773206361706974616c20686173206265656e20636f6c6c656374656044820152686420616c726561647960b81b60648201526084016103d2565b600061097633610e57565b336000818152600360205260409081902054905163a9059cbb60e01b81526004810192909252602482018390529192506001600160a01b0390911690819063a9059cbb906044016020604051808303816000875af11580156109dc573d6000803e3d6000fd5b505050506040513d601f19601f82011682018060405250810190610a009190611eab565b5033600081815260026020818152604080842081516818dbdb1b1958dd195960ba1b8152600981018290529151918290036029018220600190559490935252610a4890611ddd565b90815260200160405180910390205443610a629190611ecd565b336000908152600260205260409081902090516d6f66666572696e67426c6f636b7360901b8152600e019081526040519081900360200181209190915533907f84c5641f47c35714f936ae4a7724f92afea6b369f870206307ef3547d2c7403490600090a260019250505090565b336000908152600260205260408082209051610aeb90611d8a565b908152602001604051809103902054600014610b575760405162461bcd60e51b815260206004820152602560248201527f426f6e6420697320616c726561647920697373756564206f72206973207265736044820152641bdb1d995960da1b60648201526084016103d2565b336000908152600160209081526040918290208251647469746c6560d81b815260058101919091529151918290036025019091208c51610b99928e0190611a16565b503360009081526001602090815260409182902082516534b9b9bab2b960d11b815260068101919091529151918290036026019091208b51610bdd928d0190611a16565b503360009081526001602090815260409182902082516a3232b9b1b934b83a34b7b760a91b8152600b810191909152915191829003602b019091208a51610c26928c0190611a16565b50336000908152600160209081526040918290208251646c696e6b7360d81b815260058101919091529151918290036025019091208951610c69928b0190611a16565b5033600090815260036020908152604080832080546001600160a01b0319166001600160a01b038c16179055600290915290819020905160649190610cad90611d8a565b90815260408051602092819003830181209390935533600081815260028085528382206b1a5cdcdd5959105b5bdd5b9d60a21b8752600c808801829052855197889003602c90810189208e90558585528388526c18dd5c9c995b9d105b5bdd5b9d609a1b8952600d8901839052865198899003602d0189208e90558585528388526873656c6c526174696f60b81b89526009890183905286519889900360290189208f90558585528388526b6275796261636b526174696f60a01b895290880182905294519687900390940186208a90559190529091524391610d8f90611ddd565b90815260408051602092819003830181209390935533600081815260028085528382206d6f66666572696e67426c6f636b7360901b8752600e8701819052845196879003602e0187208a9055929091529092526b657870697265426c6f636b7360a01b8352600c8301919091525190819003602c018120839055610e14908c90611f1f565b6040519081900381209033907f0cbe78eb0e56231e6b23aa1622c26c07c0c6711c07883e77999379ce6cc7476990600090a35060019a9950505050505050505050565b6001600160a01b03811660009081526002602052604080822090516873656c6c526174696f60b81b8152600901610834565b600080805b6001600160a01b038416600090815260066020526040902054811015610f02576001600160a01b0384166000908152600660205260409020805482908110610ed857610ed8611f3b565b906000526020600020015482610eee9190611e0c565b915080610efa81611f51565b915050610e8e565b5092915050565b600160209081526000928352604090922081518083018401805192815290840192909301919091209152805461078290611ee4565b6001600160a01b038116600081815260026020818152604080842081516b657870697265426c6f636b7360a01b8152600c8101829052915191829003602c018220549585529290915291924392909190610f9790611ddd565b908152602001604051809103902054610fb09190611e0c565b10610ffd5760405162461bcd60e51b815260206004820152601760248201527f426f6e64206861736e277420657870697265642079657400000000000000000060448201526064016103d2565b6001600160a01b03821660009081526002602052604090819020905161102290611d8a565b90815260200160405180910390205460641415611044576110428261191c565b505b6001600160a01b03821660009081526002602052604080822090516b6275796261636b526174696f60a01b8152600c019081526040805160209281900383019020546001600160a01b0386166000908152600584528281203382529093529120546110af9190611e3d565b90506000811161110d5760405162461bcd60e51b815260206004820152602360248201527f596f7520646f6e2774206f776e20616e7920756e697473206f662074686520626044820152621bdb9960ea1b60648201526084016103d2565b6001600160a01b03808416600090815260036020908152604080832054600290925291829020915192169161114190611d8a565b908152602001604051809103902054603314156111f35760405163a9059cbb60e01b8152336004820152602481018390526001600160a01b0382169063a9059cbb906044016020604051808303816000875af11580156111a5573d6000803e3d6000fd5b505050506040513d601f19601f820116820180604052508101906111c99190611eab565b506001600160a01b038416600090815260056020908152604080832033845290915281205561133a565b6001600160a01b03841660009081526002602052604090819020905161121890611d8a565b9081526020016040518091039020546034141561133a57600061123a85610e89565b6001600160a01b0386166000818152600560209081526040808320338452825280832054938352600490915281205492935091839161127891611e3d565b6112829190611f6c565b604051909150600090339083908381818185875af1925050503d80600081146112c7576040519150601f19603f3d011682016040523d82523d6000602084013e6112cc565b606091505b50509050806113125760405162461bcd60e51b815260206004820152601260248201527108cc2d2d8cac840e8de40e6cadcc840cae8d60731b60448201526064016103d2565b5050506001600160a01b03841660009081526005602090815260408083203384529091528120555b5060019392505050565b33600090815260026020526040808220905161135f90611d8a565b90815260200160405180910390205460641461138d5760405162461bcd60e51b81526004016103d290611d9c565b33600081815260026020818152604080842081516d6f66666572696e67426c6f636b7360901b8152600e8101829052915191829003602e0182205495909452919052439291906113dc90611ddd565b9081526020016040518091039020546113f59190611e0c565b1061144c5760405162461bcd60e51b815260206004820152602160248201527f426f6e642773206f66666572696e6720686173206e6f7420656e6465642079656044820152601d60fa1b60648201526084016103d2565b33600081815260026020818152604080842081516b657870697265426c6f636b7360a01b8152600c8101829052915191829003602c01822054959094529190524392919061149990611ddd565b9081526020016040518091039020546114b29190611e0c565b116114ee5760405162461bcd60e51b815260206004820152600c60248201526b109bdb9908195e1c1a5c995960a21b60448201526064016103d2565b60006114f933610803565b9050801561161f5733600081815260036020526040808220549051636eb1769f60e11b815260048101939093523060248401526001600160a01b031691829063dd62ed3e90604401602060405180830381865afa15801561155e573d6000803e3d6000fd5b505050506040513d601f19601f820116820180604052508101906115829190611e24565b9050828110156115a45760405162461bcd60e51b81526004016103d290611e5c565b6040516323b872dd60e01b8152336004820152306024820152604481018490526001600160a01b038316906323b872dd906064016020604051808303816000875af11580156115f7573d6000803e3d6000fd5b505050506040513d601f19601f8201168201806040525081019061161b9190611eab565b5050505b336000908152600260205260409081902090516033919061163f90611d8a565b908152604080516020928190038301812093909355336000908152600290925290209061166b90611ddd565b908152602001604051809103902054436116859190611ecd565b336000908152600260205260409081902090516b657870697265426c6f636b7360a01b8152600c0190815260408051602092819003830181209390935533600090815260019092529020647469746c6560d81b8252906005019081526040519081900360200181206116f691611f8e565b6040519081900381209033907fff8080bb7200b36c5490ac1bf10b61fcb8514eadf04c3f6979586a93336b80a390600090a3600191505090565b3360009081526004602052604090205461174b903490611e0c565b33600090815260046020526040902055565b336000908152600460205260409020546117b15760405162461bcd60e51b8152602060048201526015602482015274139bc8195d1a081b1bd8dad959081a5b88189bdb99605a1b60448201526064016103d2565b336000908152600260205260409081902090516117cd90611d8a565b90815260200160405180910390205460331461186e5760405162461bcd60e51b815260206004820152605460248201527f596f752063616e6e6f7420646563726561736520637265646962696c6974792060448201527f7269676874206e6f77206265636f75736520706561636566756c207265736f6c6064820152731d99481a185cc9dd081bd8d8dd5c9959081e595d60621b608482015260a4016103d2565b336000818152600460205260408082205490519192918381818185875af1925050503d80600081146118bc576040519150601f19603f3d011682016040523d82523d6000602084013e6118c1565b606091505b50509050806119095760405162461bcd60e51b815260206004820152601460248201527308cc2d2d8cac840e8de40eadcd8dec6d640cae8d60631b60448201526064016103d2565b5033600090815260046020526040812055565b6001600160a01b03811660009081526002602052604080822090516034919061194490611d8a565b9081526040805160209281900383018120939093556007805460018082019092557fa66cc928b5edb82af9bd49922954155ab7b0942694bea4ce44661d9a8736c6880180546001600160a01b0319166001600160a01b038816908117909155600090815292529020647469746c6560d81b8252906005019081526040519081900360200181206119d391611f8e565b604051908190038120906001600160a01b038416907f0b0dcd02a2243d996692b69e27c50bc8f81b5ec65c35f6b7badc532bef4667c490600090a3506001919050565b828054611a2290611ee4565b90600052602060002090601f016020900481019282611a445760008555611a8a565b82601f10611a5d57805160ff1916838001178555611a8a565b82800160010185558215611a8a579182015b82811115611a8a578251825591602001919060010190611a6f565b50611a96929150611a9a565b5090565b5b80821115611a965760008155600101611a9b565b80356001600160a01b0381168114611ac657600080fd5b919050565b60008060408385031215611ade57600080fd5b611ae783611aaf565b946020939093013593505050565b60005b83811015611b10578181015183820152602001611af8565b83811115611b1f576000848401525b50505050565b6020815260008251806020840152611b44816040850160208701611af5565b601f01601f19169190910160400192915050565b600060208284031215611b6a57600080fd5b611b7382611aaf565b9392505050565b60008060408385031215611b8d57600080fd5b611b9683611aaf565b9150611ba460208401611aaf565b90509250929050565b634e487b7160e01b600052604160045260246000fd5b600082601f830112611bd457600080fd5b813567ffffffffffffffff80821115611bef57611bef611bad565b604051601f8301601f19908116603f01168101908282118183101715611c1757611c17611bad565b81604052838152866020858801011115611c3057600080fd5b836020870160208301376000602085830101528094505050505092915050565b6000806000806000806000806000806101408b8d031215611c7057600080fd5b8a3567ffffffffffffffff80821115611c8857600080fd5b611c948e838f01611bc3565b9b5060208d0135915080821115611caa57600080fd5b611cb68e838f01611bc3565b9a5060408d0135915080821115611ccc57600080fd5b611cd88e838f01611bc3565b995060608d0135915080821115611cee57600080fd5b50611cfb8d828e01611bc3565b975050611d0a60808c01611aaf565b999c989b50969995989760a0870135975060c08701359660e08101359650610100810135955061012001359350915050565b60008060408385031215611d4f57600080fd5b611d5883611aaf565b9150602083013567ffffffffffffffff811115611d7457600080fd5b611d8085828601611bc3565b9150509250929050565b6573746174757360d01b815260060190565b60208082526021908201527f426f6e64206973206e6f7420697373756564206f72206973207265736f6c76656040820152601960fa1b606082015260800190565b6c6372656174696f6e426c6f636b60981b8152600d0190565b634e487b7160e01b600052601160045260246000fd5b60008219821115611e1f57611e1f611df6565b500190565b600060208284031215611e3657600080fd5b5051919050565b6000816000190483118215151615611e5757611e57611df6565b500290565b6020808252602f908201527f546f6f2066657720746f6b656e7320616c6c6f77656420746f207472616e736660408201526e657246726f6d20746f20426f6e644960881b606082015260800190565b600060208284031215611ebd57600080fd5b81518015158114611b7357600080fd5b600082821015611edf57611edf611df6565b500390565b600181811c90821680611ef857607f821691505b60208210811415611f1957634e487b7160e01b600052602260045260246000fd5b50919050565b60008251611f31818460208701611af5565b9190910192915050565b634e487b7160e01b600052603260045260246000fd5b6000600019821415611f6557611f65611df6565b5060010190565b600082611f8957634e487b7160e01b600052601260045260246000fd5b500490565b600080835481600182811c915080831680611faa57607f831692505b6020808410821415611fca57634e487b7160e01b86526022600452602486fd5b818015611fde5760018114611fef5761201c565b60ff1986168952848901965061201c565b60008a81526020902060005b868110156120145781548b820152908501908301611ffb565b505084890196505b50949897505050505050505056fea26469706673582212209fc989ef62f8bd07fc62b7fbf5d82b98e826b68a4b4086f3ca45f4e542c21eb064736f6c634300080a0033",
    "sourcePath": "/home/piotr/BondI/contracts/BondI.sol",
    "compiler": {
        "name": "solc",
        "version": "0.8.10+commit.fc410830"
    },
    "functionHashes": {
        "bondBags(address,uint256)": "269e6d04",
        "bondDescription(address,string)": "549dc89e",
        "bondInfo(address,string)": "d6f20f71",
        "bondToken(address)": "8a19e5ef",
        "buyBond(address,uint256)": "03633314",
        "buyers(address,address)": "2072086a",
        "collectCapital()": "29d29799",
        "ethLocked(address)": "2af49bcb",
        "issueBond(string,string,string,string,address,uint256,uint256,uint256,uint256,uint256)": "2d40be0e",
        "lockEth()": "d7611cc1",
        "name()": "06fdde03",
        "peacefulResolve()": "ce470220",
        "sellBond(address)": "adc44b39",
        "totalBondBag(address)": "4d78c2c0",
        "totalCapital(address)": "34e613ac",
        "totalDue(address)": "0ad2f0c3",
        "unlockEth()": "f02fef84"
    },
    "gasEstimates": {
        "creation": {
            "codeDepositCost": "1657600",
            "executionCost": "infinite",
            "totalCost": "infinite"
        },
        "external": {
            "bondBags(address,uint256)": "4767",
            "bondDescription(address,string)": "infinite",
            "bondInfo(address,string)": "infinite",
            "bondToken(address)": "2647",
            "buyBond(address,uint256)": "infinite",
            "buyers(address,address)": "infinite",
            "collectCapital()": "infinite",
            "ethLocked(address)": "2586",
            "issueBond(string,string,string,string,address,uint256,uint256,uint256,uint256,uint256)": "infinite",
            "lockEth()": "24622",
            "name()": "infinite",
            "peacefulResolve()": "infinite",
            "sellBond(address)": "infinite",
            "totalBondBag(address)": "infinite",
            "totalCapital(address)": "infinite",
            "totalDue(address)": "infinite",
            "unlockEth()": "infinite"
        },
        "internal": {
            "forceResolve(address)": "infinite"
        }
    }
}